:100000000C942A000C9447000C9447000C94470071
:100010000C9447000C9447000C9447000C94470044
:100020000C9447000C9447000C9447000C94470034
:100030000C9447000C9447000C9447000C94470024
:100040000C9447000C9447000C9447000C94470014
:100050000C94470011241FBECFE5D4E0DEBFCDBF16
:1000600010E0A0E6B0E0E8E0F4E002C005900D92F8
:10007000AA3EB107D9F710E0AAEEB0E001C01D9288
:10008000AB3EB107E1F70E94DF000C9402020C9432
:10009000000088BB84E085BB84EC99E00197F1F710
:1000A00015BA089588BB85E085BB84EC99E001977B
:1000B000F1F781E085BB089588E388BB94E095BBA8
:1000C00024EC39E0F9013197F1F715BAF9013197CC
:1000D000F1F781E088BB95BBF9013197F1F715BACB
:1000E000F9013197F1F78EE088BB95BBF9013197A3
:1000F000F1F715BAF9013197F1F780E888BB95BBA4
:10010000C9010197F1F715BAC9010197F1F70895EF
:10011000FC0155E024EC39E041E007C088BB55BB49
:10012000C9010197F1F745BB319680818823B1F76A
:100130000895EF92FF920F931F93CF93DF938C015B
:100140009C01E1E0F0E010C0CF01880F991F43E06F
:10015000EE0FFF1F4A95E1F7E80FF91FC9016AE0AA
:1001600070E00E94E0019B012A30310568F718C059
:10017000C801BF010E94E001462FC801BF010E94D3
:10018000E0018C01CF016AE070E00E94E001FB0118
:10019000405D48BBE5BACE010197F1F7F5BA06C05C
:1001A00085E0E82EC4ECD9E0FF24F394309701F702
:1001B000DF91CF911F910F91FF90EF9008955F9283
:1001C0006F927F928F929F92AF92BF92CF92DF9267
:1001D000EF92FF920F931F93CF93DF938FEF84BB28
:1001E00087BB11BA8ABB1BBA0E945C0080E690E014
:1001F0000E94880080E395E729E130E0F90131971A
:10020000F1F70197D9F783E389B988E18AB986E8DC
:1002100080BD80E49FE129E130E0F9013197F1F7F9
:100220000197D9F700E814E0B4ECAB2EB9E0BB2E8F
:10023000A9E1CA2ED12CF0EC6F2EE5E05E2E7724DA
:10024000739474ECE72E79E0F72E9924939468E088
:10025000862E0E945C0008BB15BBC5010197F1F713
:1002600015BA89E890E00E94880080EA9FE0F601D4
:100270003197F1F70197D9F768BA15BBC501019716
:10028000F1F715BAECECF0E05F9BFECF2CB12193B7
:1002900028BB55BAC5010197F1F775BA80E0E23D78
:1002A000F80791F72093EA0098BA15BBC7010197A8
:1002B000F1F715BAEF012697CE0162ED70E046E046
:1002C00050E00E94F401009799F408BB15BBC701E8
:1002D0000197F1F715BA8DE990E00E9488009BBA6A
:1002E0008FEF9FEFF6013197F1F70197D9F7B1CF73
:1002F000CE0168ED70E046E050E00E94F401009706
:10030000A1F408BB15BBC7010197F1F715BA84EA40
:1003100090E00E94880082E08BBB80E49CE9F601BB
:100320003197F1F70197D9F794CFCE016EED70E0D8
:1003300046E050E00E94F401009799F408BB15BB19
:10034000C7010197F1F715BA8BEA90E00E94880087
:100350001BBB8FEF9FEFF6013197F1F70197D9F7AC
:1003600078CFCE0164EE70E046E050E00E94F401E8
:10037000009799F408BB15BBC7010197F1F715BAAF
:1003800084EB90E00E9488008BBA80E49CE9F6013F
:100390003197F1F70197D9F75CCF08BB15BBC701BF
:1003A0000197F1F715BA88EB90E00E9488001BBA1C
:1003B00080E49CE9F6013197F1F70197D9F749CF2D
:1003C000AA1BBB1B51E107C0AA1FBB1FA617B7077B
:1003D00010F0A61BB70B881F991F5A95A9F7809597
:1003E0009095BC01CD010895FB01DC0141505040C6
:1003F00030F08D910190801919F40020B9F7881B15
:08040000990B0895F894FFCF59
:1004080057454C434F4D4520546F204E5349544156
:1004180055544F202020202020202020205F5F5B83
:100428007665722D312E305D00456E7465722079C7
:100438006F757220636F6D6D616E643A004C494749
:10044800485431004C494748543200535045414BB9
:100458004552530046414E00534F525259212120D4
:100468002057726F6E6720636D643A003030303009
:1004780030304C49474854314C4947485432534F1F
:0A048800554E442046414E2020202E
:00000001FF
